:1005780012064712067FD2AF7F01C280C282EF60A7
:100588000512027B80F87F01EF600512014B80F8AD
:10059800D2807F01E532B401FBE4F5321205B8EFF1
:1005A80060F2BF0104C28280EBBF02E8D28280E41D
:09069500007F027EC7DEFEDFFCDF
:01069E002239
:04066600AD07AC062A
:10066A00E4FBFAC3EB9DEA9C500A1206950BBB0009
:04067A00010A80EF02
:01067E002259
:1001E40041540D0A004F4B0041542B4350494E3F9C
:1001F4000D0A0052454144590041542B435245478E
:100204003F0D0A00302C3100302C350041542B4373
:1002140053510D0A0041542B434D47463D310D0ABD
:100224000041542B435343533D2247534D220D0A5F
:100234000041542B435343413F0D0A0041542B4387
:10024400534D503D31372C3136372C302C3234312C
:100254000D0A0041542B434E4D493D322C320D0AB8
:100264000030303646303036450030303646303097
:07027400363630303636004B
:0605EF008B1D8A1E891F0E
:1005F5007B007A007900E53030E721547FFE7400F6
:100605002531F58274003EF583E4F0851D23851EB2
:0C06150024851F250B7A00790012039742
:0106210022B6
:100496007517FF7518017519E9751A00751B647BC8
:0504A600FF7A0179E47A
:1004AB00E4F51CF530F531753301120622E51845DC
:1004BB00194517603DE51B451A6037E51B151B7089
:1004CB0002151A14451A60217F0A7E00120666E592
:1004DB003030E7E7AB17AA18A9191205EFEA494B19
:1004EB007007E4F530F53180D2E51B451A700375C2
:0B04FB001C01E4F530F531F533AF1CB7
:0105060022D2
:10027B00120496EF6009120496EF60037FFF22755C
:10028B0017FF7518017519F7751A01751B907BFF10
:10029B007A0179EC1204ABEF60037FFE227517FF36
:1002AB00751802751908751A01751B907BFF7A0179
:1002BB0079FD1204ABEF60457523FF75240275259C
:1002CB000C7B017A007900120397E94A4B702E756B
:1002DB0017FF7518017519E9F51A751BC87BFF7A9D
:1002EB000279101204ABEF7011782C7C00FD7B01AE
:1002FB007A00790FFE7F021200F67FFD227F00222B
:10014B007517FF7518017519E9751A00751B647B16
:10015B00FF7A0279191204ABEF60037FFA2275174D
:10016B00FF7518017519E9751A00751B647BFF7A09
:10017B000279251204ABEF60037FF9227517FF7527
:10018B0018017519E9751A00751B647BFF7A0279E2
:10019B00351204ABEF60037FF8227517FF7518015A
:1001AB007519E9751A00751B647BFF7A0279401289
:1001BB0004ABEF60037FF7227517FF7518017519F4
:1001CB00E9751A00751BC87BFF7A0279571204ABCD
:0901DB00EF60037FF4227F002293
:1005B8007523FF7524027525657B017A0079001281
:1005C8000397E94A4B60037F01227523FF752402D4
:1005D80075256E7B017A007900120397E94A4B6012
:0705E800037F02227F0022C5
:05069F00434D543A0038
:10067F00538E7F5389F0438901E4F58A758CDCC270
:06068F008DD2A9C28C22ED
:07001A00E4F58A758CDC227D
:03000B00020507E4
:10050700C0E0C0F0C083C082C0D075D000C000C0BA
:1005170001C002C003C004C005C006C007C28C43A7
:100527003080E530547FFE74002531F58274003E3B
:10053700F583E4F0E533701EF530F5317523FF756B
:10054700240675259F7B017A007900120397E94AF3
:100557004B6003753201D007D006D005D004D00315
:10056700D002D001D000D0D0D082D083D0F0D0E05C
:010577003251
:070003000230000001320091
:1006470053877F759850538EBF538EFE53890F4340
:0F0657008920758BFD758DFDC2ABD28ED2AC2282
:0C000E00C2AC8F993099FDC299D2AC228F
:100622008B1D8A1E891FAB1DAA1EA91F12011C60E9
:1006320013051FE51F7002051E14F912011CFF129B
:05064200000E80E22221
:03002300020419BB
:10041900C0E0C0F0C083C082C0D075D000C000C0A9
:1004290001C002C003C004C005C006C00730983D22
:10043900C298AE30AF31E4FCFD7B807A967998F8AA
:10044900D3120135402412001AE53145307002D229
:100459008C0531E531AE3070020530142400F58287
:1004690074003EF583E599F08003433080309902AA
:10047900C299D007D006D005D004D003D002D0014C
:0D048900D000D0D0D082D083D0F0D0E032AF
:0300000002030BED
:0C030B00787FE4F6D8FD758133020352C0
:10002600E709F608DFFA8046E709F208DFFA803EBC
:1000360088828C83E709F0A3DFFA8032E309F608A9
:10004600DFFA8078E309F208DFFA807088828C8311
:10005600E309F0A3DFFA806489828A83E0A3F608C5
:10006600DFFA805889828A83E0A3F208DFFA804C9F
:1000760080D280FA80C680D4806980F28033801076
:1000860080A680EA809A80A880DA80E280CA8033DF
:1000960089828A83ECFAE493A3C8C582C8CCC58357
:1000A600CCF0A3C8C582C8CCC583CCDFE9DEE78027
:1000B6000D89828A83E493A3F608DFF9ECFAA9F0A6
:1000C600EDFB2289828A83ECFAE0A3C8C582C8CCFC
:1000D600C583CCF0A3C8C582C8CCC583CCDFEADE15
:1000E600E880DB89828A83E493A3F208DFF980CC77
:1000F60088F0EF60010E4E60C388F0ED2402B40470
:100106000050B9F582EB2402B4040050AF23234516
:06011600822390007673C5
:10011C00BB010689828A83E0225002E722BBFE02E1
:09012C00E32289828A83E4932214
:10013500EB9FF5F0EA9E42F0E99D42F0EC6480C841
:0601450064809845F022E1
:100397008B208A218922AB23AA24A92512011C605C
:1003A70063AB20AA21A92212011C605F8523268541
:1003B70024278525288B298A2A892BAB26AA27A9B2
:1003C7002812011CFF6023AB29AA2AA92B12011CA2
:1003D7006F7017042528F528E43527F527740125BC
:1003E7002BF52BE4352AF52A80D1AB26AA27A92895
:1003F70012011C7002800D74012522F522E43521BB
:10040700F521809DAB20AA21A922227B007A0079C1
:020417000022C1
:10031700020578E493A3F8E493A34003F68001F27F
:1003270008DFF48029E493A3F85407240CC8C333E7
:10033700C4540F4420C8834004F456800146F6DFB6
:10034700E4800B0102040810204080900003E47E43
:10035700019360BCA3FF543F30E509541FFEE493AB
:10036700A360010ECF54C025E060A840B8E493A372
:10037700FAE493A3F8E493A3C8C582C8CAC583CA9D
:10038700F0A3C8C582C8CAC583CADFE9DEE780BE55
:01000A0000F5
:00000001FF
