:1006830012072B120763D2AF7F01C280C282C283DB
:10069300EF600512038680F87F01EF60051202ED1B
:1006A30080F8D2807F01E532B401FBE4F532120118
:1006B3004BEF60F2BF0104C28280EBBF0204D2821F
:1006C30080E4BF0304C28380DDBF04DAD28380D613
:09077900007F027EC7DEFEDFFCFA
:010782002254
:04074A00AD07AC0645
:10074E00E4FBFAC3EB9DEA9C500A1207790BBB003F
:04075E00010A80EF1D
:010762002274
:10021E0041540D0A004F4B0041542B4350494E3F61
:10022E000D0A0052454144590041542B4352454753
:10023E003F0D0A00302C3100302C350041542B4339
:10024E0053510D0A0041542B434D47463D310D0A83
:10025E000041542B435343533D2247534D220D0A25
:10026E000041542B435343413F0D0A0041542B434D
:10027E00534D503D31372C3136372C302C323431F2
:10028E000D0A0041542B434E4D493D322C320D0A7E
:10029E000030303646303036453030333100303075
:1002AE003646303036363030363630303331003038
:1002BE003036463030364530303332003030364608
:1002CE00303036363030363630303332006F6E31B5
:0F02DE00006F666631006F6E32006F6666320029
:0606D3008B1D8A1E891F29
:1006D9007B007A007900E53030E721547FFE740011
:1006E9002531F58274003EF583E4F0851D23851ECE
:0C06F90024851F250B7A0079001204A252
:0107050022D1
:1005A1007517FF751802751923751A00751B647B81
:0505B100FF7A02791E33
:1005B600E4F51CF530F531753301120706E51845EB
:1005C600194517603DE51B451A6037E51B151B707D
:1005D60002151A14451A60217F0A7E0012074AE5A1
:1005E6003030E7E7AB17AA18A9191206D3EA494B28
:1005F6007007E4F530F53180D2E51B451A700375B6
:0B0606001C01E4F530F531F533AF1CAA
:0106110022C6
:100386001205A1EF60091205A1EF60037FFF227538
:1003960017FF751802751931751A01751B907BFFC9
:1003A6007A0279261205B6EF60037FFE227517FFE3
:1003B600751802751942751A01751B907BFF7A0232
:1003C60079371205B6EF60457523FF75240275254A
:1003D600467B017A0079001204A2E94A4B702E7519
:1003E60017FF751802751923F51A751BC87BFF7A56
:1003F60002794A1205B6EF7011782C7C00FD7B015C
:100406007A00790FFE7F021200F67FFD227F00221E
:1002ED007517FF751802751923751A00751B647B38
:1002FD00FF7A0279531205B6EF60037FFA22751764
:10030D00FF751802751923751A00751B647BFF7A2A
:10031D0002795F1205B6EF60037FF9227517FF753D
:10032D001802751923751A00751B647BFF7A027903
:10033D006F1205B6EF60037FF8227517FF7518026F
:10034D00751923751A00751B647BFF7A02797A1271
:10035D0005B6EF60037FF7227517FF751802751943
:10036D0023751A00751BC87BFF7A0279911205B6A9
:09037D00EF60037FF4227F0022EF
:10014B007523FF75240275259F7B017A00790012B8
:10015B0004A2E94A4B60037F01227523FF75240239
:10016B007525AC7B017A0079001204A2E94A4B6039
:10017B00037F02227523FF7524027525BD7B017A4F
:10018B000079001204A2E94A4B60037F0322752316
:10019B00FF7524027525CA7B017A0079001204A22F
:1001AB00E94A4B60037F04227523FF7524027525F2
:1001BB00DB7B017A0079001204A2E94A4B60037FD2
:1001CB0001227523FF7524027525DF7B017A0079E7
:1001DB00001204A2E94A4B60037F02227523FF75CC
:1001EB0024027525E47B017A0079001204A2E94A06
:1001FB004B60037F03227523FF7524027525E87B73
:10020B00017A0079001204A2E94A4B60037F0422B1
:03021B007F00223F
:05078300434D543A0053
:10076300538E7F5389F0438901E4F58A758CDCC28B
:060773008DD2A9C28C2208
:07001A00E4F58A758CDC227D
:03000B00020612D8
:10061200C0E0C0F0C083C082C0D075D000C000C0AE
:1006220001C002C003C004C005C006C007C28C439B
:100632003080E530547FFE74002531F58274003E2F
:10064200F583E4F0E533701EF530F5317523FF755F
:1006520024077525837B017A0079001204A2E94AF6
:100662004B6003753201D007D006D005D004D00309
:10067200D002D001D000D0D0D082D083D0F0D0E050
:010682003245
:070003000230000001320091
:10072B0053877F759850538EBF538EFE53890F435B
:0F073B008920758BFD758DFDC2ABD28ED2AC229D
:0C000E00C2AC8F993099FDC299D2AC228F
:100706008B1D8A1E891FAB1DAA1EA91F12011C6004
:1007160013051FE51F7002051E14F912011CFF12B6
:05072600000E80E2223C
:03002300020524AF
:10052400C0E0C0F0C083C082C0D075D000C000C09D
:1005340001C002C003C004C005C006C00730983D16
:10054400C298AE30AF31E4FCFD7B807A967998F89E
:10055400D3120135402412001AE53145307002D21D
:100564008C0531E531AE3070020530142400F5827B
:1005740074003EF583E599F080034330803099029E
:10058400C299D007D006D005D004D003D002D00140
:0D059400D000D0D0D082D083D0F0D0E032A3
:03000000020416E1
:0C041600787FE4F6D8FD75813302045DA8
:10002600E709F608DFFA8046E709F208DFFA803EBC
:1000360088828C83E709F0A3DFFA8032E309F608A9
:10004600DFFA8078E309F208DFFA807088828C8311
:10005600E309F0A3DFFA806489828A83E0A3F608C5
:10006600DFFA805889828A83E0A3F208DFFA804C9F
:1000760080D280FA80C680D4806980F28033801076
:1000860080A680EA809A80A880DA80E280CA8033DF
:1000960089828A83ECFAE493A3C8C582C8CCC58357
:1000A600CCF0A3C8C582C8CCC583CCDFE9DEE78027
:1000B6000D89828A83E493A3F608DFF9ECFAA9F0A6
:1000C600EDFB2289828A83ECFAE0A3C8C582C8CCFC
:1000D600C583CCF0A3C8C582C8CCC583CCDFEADE15
:1000E600E880DB89828A83E493A3F208DFF980CC77
:1000F60088F0EF60010E4E60C388F0ED2402B40470
:100106000050B9F582EB2402B4040050AF23234516
:06011600822390007673C5
:10011C00BB010689828A83E0225002E722BBFE02E1
:09012C00E32289828A83E4932214
:10013500EB9FF5F0EA9E42F0E99D42F0EC6480C841
:0601450064809845F022E1
:1004A2008B208A218922AB23AA24A92512011C6050
:1004B20063AB20AA21A92212011C605F8523268535
:1004C20024278525288B298A2A892BAB26AA27A9A6
:1004D2002812011CFF6023AB29AA2AA92B12011C96
:1004E2006F7017042528F528E43527F527740125B0
:1004F2002BF52BE4352AF52A80D1AB26AA27A92889
:1005020012011C7002800D74012522F522E43521AE
:10051200F521809DAB20AA21A922227B007A0079B5
:020522000022B5
:10042200020683E493A3F8E493A34003F68001F267
:1004320008DFF48029E493A3F85407240CC8C333DB
:10044200C4540F4420C8834004F456800146F6DFAA
:10045200E4800B0102040810204080900003E47E37
:10046200019360BCA3FF543F30E509541FFEE4939F
:10047200A360010ECF54C025E060A840B8E493A366
:10048200FAE493A3F8E493A3C8C582C8CAC583CA91
:10049200F0A3C8C582C8CAC583CADFE9DEE780BE49
:01000A0000F5
:00000001FF
